:020000040800F2
:10000000900A0020A1010008FF2900080926000825
:10001000FD290008C50E0008B12E000800000000F0
:10002000000000000000000000000000D72B0008C6
:10003000FF0E000800000000D52B0008D92B000897
:10004000BB010008BB010008BB010008BB010008A0
:10005000BB010008BB010008BB010008BB01000890
:10006000BB010008BB010008BB010008C90E000865
:10007000BB010008BB010008BB010008BB01000870
:10008000BB010008BB010008BB010008BB01000860
:10009000BB010008BB010008BB010008BB01000850
:1000A000BB010008BB010008BB010008BB01000840
:1000B000BB010008BB010008BB010008BB01000830
:1000C000BB010008BB010008BB010008BB01000820
:1000D000BB010008A52E0008BB010008BB010008F9
:1000E000BB010008BB010008BB01000800F002F8DA
:1000F00000F047F80AA090E8000C82448344AAF17B
:100100000107DA4501D100F03CF8AFF2090EBAE878
:100110000F0013F0010F18BFFB1A43F0010318473B
:10012000B8340000D8340000103A24BF78C878C131
:10013000FAD8520724BF30C830C144BF04680C60ED
:10014000704700000023002400250026103A28BF35
:1001500078C1FBD8520728BF30C148BF0B60704739
:10016000752900F07D80002070471FB59DE80300D1
:1001700000F070FB00F062F91FBD10B500F0C7F988
:1001800010BD00F02AFA1146FFF7EFFF02F0AEFEB5
:1001900000F02EFB03B4FFF7F0FF03BC00F0ECFC13
:1001A0000948804709480047FEE7FEE7FEE7FEE70B
:1001B000FEE7FEE7FEE7FEE7FEE7FEE70448054947
:1001C000054A064B70470000552C0008ED0000085A
:1001D00090040020900A0020900600209006002045
:1001E0000FB4044910B503AA029800F0F9F810BC46
:1001F0005DF814FB880300202DE9F0410E4604460B
:10020000002020622046E168884730B3252805D0C9
:10021000D4E901219047206A401CF2E7E1682046BA
:1002200000278847050018D0A5F14100192802D8F9
:1002300020354FF400673246294620462760FFF7F5
:100240008FFF40B1012804D0F61D26F007060836BE
:10025000D8E7361DD6E72846DAE7206ABDE8F08100
:100260002DE9F0410646002410687529314616A58F
:1002700010D0AFF30080002802DA404213A507E057
:1002800031688A0701D512A502E0490704D511A5F6
:10029000012401E0AFF3008000210A2206F12407C7
:1002A00009E0B0FBF2FCB0FBF2F302FB1C003030C3
:1002B00078541846491C0028F3D123462A46304674
:1002C000BDE8F04100F032B8000000002D00000051
:1002D0002B000000200000004FF0000200B5134684
:1002E00094469646203922BFA0E80C50A0E80C5056
:1002F000B1F12001BFF4F7AF090728BFA0E80C5007
:1003000048BF0CC05DF804EB890028BF40F8042BFF
:1003100008BF704748BF20F8022B11F0804F18BF6C
:1003200000F8012B70477047704770472DE9F04780
:100330000D4699469246044600F124080168880655
:1003400004D5E06921F01001216000E00120A842FD
:1003500001DD471B00E00027A1697A1902EB0900C3
:10036000081AA0612078C00602D42046AFF30080AE
:10037000002608E0D4E901211AF806009047206A17
:10038000401C761C20624E45F4DB2078C0060AD55E
:100390002046AFF3008006E0D4E9012130209047E9
:1003A000206A401C2062381EA7F10107F4DC07E038
:1003B000D4E9012118F805009047206A401C20620A
:1003C000281EA5F10105F3DC2046AFF3008020785C
:1003D000000602D50220BDE8F0870120FBE70000FF
:1003E000074B70B50D467B4400F011F804462846D3
:1003F00000F020F810B14FF0FF3070BD204670BD06
:10040000EB2A000001694A1C02610878704700B5B8
:100410008FB0CDE901310021059105497944CDE93D
:10042000031011466846FFF7E7FE0FB000BD00005D
:10043000E5FFFFFF007B00F08000704710B54248E9
:100440005421FFF749FF41485421FFF745FF404839
:100450005421FFF741FF3F493B483C4A3F4B08606E
:100460003D490A603A491960531C0365481C1065F0
:10047000012008653B48344A39A1784400F01CF952
:1004800020B9384878440A3800F0BBF937482F4A79
:1004900035A1784400F010F920B9344878440A387E
:1004A00000F0AFF932482A4A2FA1784400F004F94D
:1004B00020B92F4878440A3800F0A3F94023224895
:1004C000DC000021224600F0D4F820B12548784411
:1004D000543800F096F91D4822464023002100F0D0
:1004E000C8F820B121487844543800F08AF91848F7
:1004F00022461023002100F0BCF8002806D01C483A
:100500007844BDE81040563800F07BB910BD104863
:1005100070B5006D20F001040B4800F043F90B4862
:1005200000F040F90A4800F03DF909E0206D20F0A4
:100530000105204600F036F9204600F073F82C46FD
:10054000002CF3D170BD000034030020880300208C
:10055000DC03002014000020180000201C000020F4
:10056000720000004C3100007700000038310000BC
:10057000243100000EB5CDE9000100F0DDFA029053
:1005800069460120ABBE0EBD08B569460090022049
:10059000ABBE08BD1FB58DE8070069460520ABBEA0
:1005A00004B010BD1FB58DE80F0069460620ABBE34
:1005B000F6E708B5694600900920ABBE08BD1CB53A
:1005C000CDE9000169460A20ABBE1CBD704708B5E5
:1005D000694600900C20ABBE08BD754600F018F9C6
:1005E000AE4605006946534620F00700854618B020
:1005F00020B5FFF7E3FDBDE820404FF000064FF0C7
:1006000000074FF000084FF0000B21F00701AC4647
:10061000ACE8C009ACE8C009ACE8C009ACE8C00966
:100620008D46704770B50446051F00F0F7F8006866
:10063000002C14BF446870BD002C18BFAC423CBFF6
:1006400020466468F8D301680A18AA4218BF4560BA
:1006500003D12A6805461144016028684119A14266
:100660001CBF6C6070BD61686960216808442860C7
:1006700070BD70B5C468A50713D0650211D4B2F57A
:10068000807F09D0B2F5007F06D0B2F5806F08D127
:10069000012300F1240106E05D1E6FF07F46B542A4
:1006A00001D3012070BD0161C361416024F4706118
:1006B0001143C160002070BD2DE9F0410C46074692
:1006C0001646104600F06EF82078611C61280AD0AA
:1006D000722802D077283CD102E00125002405E0F1
:1006E0000225042402E0082448F2020511F8010B57
:1006F0002B2806D0622809D011F8010C74280AD0E2
:100700000BE045F0030544F00204EFE745F0040573
:1007100044F00104EAE744F0100438462146FFF7AC
:1007200029FF411C15D00021316171604FF4007127
:10073000F560F1617061200704D530460222002186
:1007400000F0E6F8306D40F0010030653046BDE85D
:10075000F0810020FBE72DE9F0410D460646104CE4
:10076000206DC10704D0410804D020F00104F7E750
:1007700022460EE0542000F09CF807000ED0206DB9
:1007800047F001010843542120653846FFF7A4FDD6
:100790003A4629463046BDE8F0418DE70020D6E7CD
:1007A000340300202DE9F04704464FF000094FF0D4
:1007B000FF37C568D4E90486A80707D0204600F0B3
:1007C00057F93046FFF7E0FE002802DA3846BDE868
:1007D000F087280502D54046FFF724FF4C2120462C
:1007E000FFF77AFD206D20F0010020654846EEE716
:1007F00010B50446AFF300802046BDE81040FFF777
:10080000C9BC10B500F07EF9BDE8104000F074B925
:1008100000487047300400207047000000487047CF
:1008200038040020704770477047704738B5044659
:100830000A4600206946AFF30080002808BF38BD93
:1008400002460099204600F0A4F9012038BD01209D
:1008500000F0F3B9F8B5AFF30080054600200C4670
:10086000102000BF0646A819A0420DD9324669469D
:100870000020AFF30080070008BF00F0DEF9009809
:10088000A04218BF0546C419FFF7C8FF0560074618
:10089000F01D20F007004619284600F073F9B44215
:1008A00008BFF8BDA21B31463868BDE8F84000F02B
:1008B00070B970B50646FFF7B1FF056806F10B0089
:1008C00020F00704B4429CBF002070BD2B466A682C
:1008D000BAB11068A04210D304F1080188423CBFAD
:1008E0005068586007D35168101941601168091B9E
:1008F000016058601460101D70BD13465268002AD4
:10090000E7D121462846FFF791FF0028DED170BDD0
:100910002DE9F041044616460D464769007B8007E5
:100920002ED03846FFF745FE50BB3EB3012E02D015
:10093000022E25D104E0204600F045F905441DE0D3
:100940003846FFF744FEE168002841F01001E160FD
:1009500005DA204600F058F80120BDE8F081C9030F
:100960000BD56268E16A914200D81146A269114430
:100970002269891A814200DD08460544002D01DA0A
:100980000220EAE7E16A6068E268814206D29103E8
:10099000E06203D522F4003141F01002A66900277D
:1009A000AE4213DCE16A814201D90B4600E0034606
:1009B00003EB060C2369ACEB030CAC4506DD81426E
:1009C00001D98C4600E084469C4505D1A76027608C
:1009D00042F02000A5620DE0AD1BE669AE1B81422E
:1009E000A66000D90846C01A281A2060581960600D
:1009F00022F0200003490840E060002084F848709D
:100A0000ABE70000BFCFD7FFC16821F4001141F070
:100A10008001C16000218160016070472DE9F047CD
:100A2000814614460E464FF0FF383248D568576964
:100A3000054209D03846A169FFF7C1FD002811DB46
:100A40002C48C0430540E5602B46324649463846AF
:100A5000FFF7A0FDA16920F00042B21A114400285E
:100A6000A16103D02046FFF7CFFF4046BDE8F087E5
:100A700070B504460569C06A6168884200D80846B6
:100A8000E16821F42011E160C90312D5A84208D021
:100A90002246411B2846FFF7C1FF10B14FF0FF303F
:100AA00070BD0020E562C4E90150E06820F48030A8
:100AB000E060002070BD10B50446C06820F0200042
:100AC000E060A16AA06988420DD02046FFF7D0FF00
:100AD000E06820F4405040F01000E060A06AA0619F
:100AE0002069E062606044F24001E0688843E060B1
:100AF00010BD000010000200002801D000F03CB83A
:100B00007047000010B5014602A000F07DF80120FA
:100B100010BD000053494752545245443A20526593
:100B20006469726563743A2063616E2774206F7024
:100B3000656E3A200000000010B5431C02E010F87A
:100B4000011B71B18107FAD14FF0013202C88C1A32
:100B50008C4314EAC211F9D0C01A0A0603D0C01E91
:100B600010BDC01A10BD0A0401D0801E10BD0902BC
:100B7000FCD0401E10BD000001491820ABBEFEE7AE
:100B80002600020000210160C0E90110704710201A
:100B90007047034640688C46002818BF88423CBF17
:100BA00003464068F8D318681844884207D00CF10F
:100BB000030020F00700001D411A521A0146081DCB
:100BC0000A60FFF72FBD10B50146C268900703D039
:100BD000900607D5886A0AE000F03EF8012101601E
:100BE000881E10BD8B69486818440B69C01A91F8BB
:100BF00048301BB191F84910401A10BD1103FCD5C3
:100C00000028FADD401E10BD70B505460C460A20CE
:100C100000E06D1C00F018F835B128780028F8D1F4
:100C200002E0641C00F010F814B120780028F8D11C
:100C3000BDE870400A2000F007B810B500F010F8C9
:100C4000BDE81040FFF758BF08B569468DF80000B1
:100C50000320ABBE08BD00000048704730040020F0
:100C600010B5012805D0002103A0FFF7CDFF01201A
:100C700010BD09A1F8E7000053494752544D454DB6
:100C80003A204F7574206F662068656170206D652D
:100C90006D6F7279000000003A2048656170206D28
:100CA000656D6F727920636F727275707465640020
:100CB00070B5044600688168C943C90717D18168C7
:100CC00021F00101816000F087FD05460AE000BFC8
:100CD00000F082FD401B022804D920688068C043D0
:100CE000C00706D020688068C043C007F0D000204D
:100CF00070BDA06A40F01000A062E06A40F0010000
:100D0000E062012070BD10B50146406A826A12F0AF
:100D1000500F05D0006A026BBDE81040084610472E
:100D2000816A41F40071816201688968C1F34241BE
:100D300007290CD1017B51B9816A21F4807181624C
:100D4000816AC90403D4816A41F00101816200F023
:100D500057F910BD10B5406A816A41F040018162C7
:100D6000C16A41F00401C16200F057F910BD10B52D
:100D7000406A00F051F910BDF8B50026044600960F
:100D800000688168C943C9072DD0816841F001011D
:100D90008160164816490068B0FBF1F000E0401E83
:100DA00000900028FBD100F017FD054616E000BFBB
:100DB00000F012FD401B022810D920688068C04353
:100DC000C0070BD0A06A40F01000A062E06A40F0BB
:100DD0000100E06284F824600120F8BD206880688A
:100DE000C043C007E4D10020F8BD00000C00002083
:100DF00040420F007FB52648416941F00101416141
:100E00004069254C00F00100039022480026C4E907
:100E100000068020C4E902608000206180006061DB
:100E20002020A061C001E061204600F06DFB08B108
:100E300000F066F8184D0022303D11462C620B2060
:100E4000656200F0BDFE0B2000F0ACFE009601963E
:100E500002961248AE6028602E732E7501246E60D3
:100E60004FF460202C61E861284600F0D7F808B103
:100E700000F046F8CDE9006407486946303802962C
:100E800000F040F8002801D000F03AF87FBD0000E3
:100E900000100240080002406001002000240140D0
:100EA00002496422A1F1740000F08EB9A40100206F
:100EB000642801D300207047014951F82000704791
:100EC000A4010020FEE70000014800F073BA000012
:100ED0005000002030B590F840500124AC40C56B64
:100EE0006C60046863604368102B036803D09960EA
:100EF0000068C26030BD9A600068C16030BD704754
:100F000072B6FEE7F8B50024009490F82420254638
:100F1000012A12D0012280F824204A681F23072AC0
:100F20000DD20668776B521E02EB820293409F43FC
:100F30000B6893401F43776319E00220F8BD0668F1
:100F40000D2A0AD2376BD21F02EB820293409F43D5
:100F50000B6893401F43376309E0F76A0D3A02EBD1
:100F6000820293409F430B6893401F43F7620A68D5
:100F7000072306680A2A0AD3F7680A3A02EB4202F4
:100F800093409F438B6893401F43F76008E03769A5
:100F900002EB420293409F438B6893401F433761AB
:100FA0000A68102A01D0112A20D1124B02689A42F5
:100FB00017D193681B0219D4936843F4000393601C
:100FC0000968102912D10C490C4A0968B1FBF2F1E9
:100FD00001EB8101490000E0491E00910029FBD18D
:100FE00004E0816A41F020018162012480F82450EC
:100FF0002046F8BD002401400C00002040420F00B4
:1010000000680349884202D10249012008707047F4
:101010000024014010000020704770472DE9F04186
:101020004FF0000704003D467ED0A06A002628B994
:10103000E66284F82460204600F07EF82046FFF740
:1010400037FEA16A01F01001014304D0A06A40F00C
:101050001000A06268E0A16A21F4885141F0020109
:10106000A1626268E169237B0A4347EA43010A43BC
:10107000A1684FF48077B94208D0012906D0002139
:1010800094F814C0BCF1010F02D00AE03946F7E72A
:10109000F3B1A36A43F02003A362E36A43F00103C0
:1010A000E3622368D3F804C02CF4694C4CEA010CC9
:1010B000C3F804C023689968DFF870C001EA0C0126
:1010C00011439960A168B9420BD0012909D00CE005
:1010D000DFF85CC0A3690CEB43330B4343F40061BE
:1010E000DFE7218A0D05A5F580152168CB6A23F479
:1010F00070032B43CB62216889680E4B19409142E3
:1011000008D1E662A16A21F0020141F00101A16269
:10111000BDE8F081A06A20F0020040F01000A0625B
:10112000E06A40F00100E0620120F1E7FDF7E1FF35
:1011300000E0FFFFFE0E1FFF70B586B000260546DB
:10114000009601960296039600681A4988422FD1AC
:101150001949886940F400708861886900F400705A
:101160000490886940F0040088618869694600F04D
:101170000400049001200090032001900F4800F02B
:101180003BFA104C0E48C4E900068020C4E9026016
:1011900080002061800060612020A061C001E061CA
:1011A000204600F0B1F908B1FFF7AAFE2C62656293
:1011B00006B070BD0024014000100240000801404C
:1011C00008000240500000202DE9F04789460446FF
:1011D0003B4900683B4F0E1D9046884201D0B84203
:1011E00007D1306810F4702F03D001252846BDE8E0
:1011F000F08794F8240001280CD0012084F8240002
:101200002046FFF7B9FD05004FF0000004D084F838
:101210002400EBE70220EAE7A16A40F6016291436D
:1012200041F48071A1622168B94218D1326812F488
:10123000702F14D0A16A41F48011A1623168490570
:1012400005D5A16A21F4005141F48051A162A16A3F
:10125000C9040AD5E16A21F00601E16206E0A26A4A
:1012600022F48012A2624968E9E7E06284F824006F
:10127000216A15488862216A1448C862216A1448A4
:10128000086321686FF0020008602068816841F4FB
:1012900080718160216843464A464C31206A00F0E3
:1012A00061F920688168C1F342410729816803D050
:1012B00041F48011816099E741F4A001FAE7000050
:1012C0000024014000280140070D00086F0D0008B0
:1012D000550D000810B590F821100022022905D004
:1012E0000421816380F82020012010BD01680B6873
:1012F00023F00E030B6001680B6823F001030B6001
:1013000090F84030C46B012101FA03F3636080F868
:10131000211080F82020104610BD000010B590F874
:1013200021100024022903D00421816301243DE01F
:1013300001680A6822F00E020A6001680A6822F059
:1013400001020A601A4A0168914201D1012121E09B
:10135000174A1432914201D110211BE0144A28325D
:10136000914201D1891515E0114A3C32914201D1D7
:1013700089140FE00E4A5032914202D14FF480316D
:1013800008E00B4A6432914202D14FF4801101E02F
:101390004FF08071064A083A5160012180F821100F
:1013A000002180F82010416B01B18847204610BD14
:1013B000080002402DE9F05FC16B0C6801680B6802
:1013C000D0F840C0042202FA0CF2494DDFF824A103
:1013D000494E4A4FDFF828B1DFF828E122422CD0ED
:1013E0005A072AD50A68920603D40A6822F0040232
:1013F0000A600168A94201D1042219E0514501D1D6
:10140000402215E0B14202D14FF4806210E0B942AF
:1014100002D14FF480420BE0594502D14FF48022B3
:1014200006E0714502D14FF4800201E04FF0806286
:101430002F4908394A60C16A3BE04FF0020808FAB8
:101440000CF818EA040F4FF000094FF0010235D0F4
:101450005FEA837832D50B689B0605D40B6823F0CE
:101460000A030B6080F821200168A94201D1022201
:1014700019E0514501D1202215E0B14202D14FF4CB
:10148000007210E0B94202D14FF400520BE059450E
:1014900002D14FF4003206E0714502D14FF4001240
:1014A00001E04FF00072124908394A6080F820903C
:1014B000816A00291AD0BDE8F05F0847082505FABF
:1014C0000CF5254212D01B0710D50B6823F00E0334
:1014D0000B6090F84010C36B02FA01F1596082630F
:1014E00080F8212080F82090016BE2E7BDE8F09FB2
:1014F000080002401C00024030000240440002404C
:10150000580002406C00024030B528B308C81349A7
:1015100014221944B1FBF2F18900C16310498163BF
:10152000022141771A6843F6F0718A43D0E900142A
:101530002143D0E902452C432143046921434469F6
:101540002143846921431143196000214163012231
:1015500042770177084630BD012030BDF8FFFDBF5E
:101560000000024070B5044690F8200000250128D4
:101570000CD0012084F8200094F821600020012E76
:1015800006D084F820000225284670BD022070BDD8
:10159000022684F82160A0632068066826F0010610
:1015A00006602046FFF796FCE06A00282068016884
:1015B00002D041F00E0106E021F004010160206834
:1015C000016841F00A0101602068016841F00101F1
:1015D0000160D9E770B5044600F0FEF80546601CCE
:1015E00002D004480078044400F0F6F8401BA04202
:1015F000FAD370BD000000202DE9F84FDFF8B89154
:101600000024A9F1040B23460F2709F1040AABF1CA
:10161000040EC9E00125A5402A40AA427DD1674EAB
:10162000D1F804C0ACEB0608B44532D014DCBCF1F0
:10163000030F3AD009DCBCF1000F2AD0BCF1010F36
:101640001CD0BCF1020F31D11DE0BCF1110F17D03D
:10165000BCF1120F2AD119E0B8F5881F19D006DCA9
:10166000B8F5803F15D0B8F5801F1FD111E0B8F54F
:10167000001F0ED0B8F5041F18D10AE0CB6815E0A2
:10168000CB681B1D12E0CB6808330FE0CB680C332E
:101690000CE08B682BB1012B4FF0080303D04561A0
:1016A00004E0042302E0056100E00023FF2A01D8E2
:1016B000064601E000F104064FEA840501D9A5F1D0
:1016C0002005D6F8008007FA05FC28EA0C0803FA82
:1016D00005F548EA0508C6F800804D68ED0062D5BA
:1016E000374DAE6946F00106AE61AD6924F00306E0
:1016F00005F001050095334D06EB050CDCF80850AC
:10170000A607360F07FA06F825EA0805DFF8B880BD
:10171000404503D14FF0000817E044E0DFF8AC800B
:10172000404502D14FF001080FE0DFF8A4804045AA
:1017300002D14FF0020808E0DFF89880404502D15E
:101740004FF0030801E04FF0040808FA06F848EAF1
:101750000508CCF808804D68D9F80060ED024D46C8
:1017600001D5164300E096432E604D68DAF800601C
:10177000AD02554601D5164300E096432E604D68F4
:10178000DBF80060AD035D4601D5164300E09643EB
:101790002E604D68DEF80060ED03754601D51643F6
:1017A00000E096432E60641C0D682A46E5407FF4F5
:1017B00031AFBDE8F88F00000804014000001110AF
:1017C000001002400000014000080140000C0140F0
:1017D000001001400014014001488068704700007B
:1017E0000000002070B5040025D094F83D000025CD
:1017F00020B984F83C50204600F04EF9242084F8AB
:101800003D002068016821F0010101602068016845
:1018100041F4004101602068016821F40041016049
:1018200000F00CFB4D4A6168914201D84C4900E040
:101830004C49884201D2012070BD4B492368B0FB5E
:10184000F1F15E6826F03F060E435E6063689342E6
:1018500006D94FF4967359434FF47A73B1FBF3F101
:101860002368491C1E6A26F03F06314319626168ED
:10187000914210D84900401EB0FBF1F2521CC2F355
:101880000B02042A01D2042022E0B0FBF1F0401C3C
:10189000C0F30B001CE0A268F2B301EBC10303EB41
:1018A0000116431EB3FBF6F35B1C43F480431B0598
:1018B00049D092B301EBC10202EB0111401EB0FB13
:1018C000F1F0401CC0F30B0040F4804040F40040B5
:1018D0002168CA694CF6FF739A431043C861D4E982
:1018E000071001432068026822F0C0021143016022
:1018F000D4E9030101432068826848F2FF339A4328
:1019000011438160D4E9050108432168CA6822F0C7
:10191000FF021043C86001E00EE016E02068016895
:1019200041F0010101602564202084F83D00256319
:1019300084F83E50002070BD01EB4106431EB3FB0E
:10194000F6F35B1CB3E70120C2E701EB4101401E47
:10195000B0FBF1F0401CC0F30B00B7E7A08601001C
:1019600080841E0000093D0040420F002DE9F84F21
:101970001F4690468A460446DDF82890FFF72CFF64
:10198000054694F83D0020287FD1192301224049C3
:101990002046009500F0CAFE002876D194F83C005D
:1019A000012872D0012084F83C0020680168C90732
:1019B00003D1016841F0010101602068016821F450
:1019C00000610160212084F83D00102084F83E0071
:1019D00000262664C4F824806785608D20852D4804
:1019E000E0622B464A465146204600F025FE90B95B
:1019F000206841698069009036E02A4649462046C1
:101A000000F03AFF50B1206C042804D1206801682E
:101A100041F4007101600120BDE8F88F606A21681F
:101A200000780861606A401C6062618D491E6185B2
:101A3000218D491E89B2218522685369DB435B07EA
:101A40000BD451B100781061606A401C6062608DF7
:101A5000401E6085208D401E20852A46494620462E
:101A600000F038FE0028CED1208D0028C5D154F8D2
:101A70003D0B016841F400710160202004F81E094B
:101A8000E67766770020C7E7FFE70220C4E700009B
:101A9000020010000000FFFF10B586B00021009189
:101AA00001910291039100680F4988421AD10F4CAD
:101AB000A06940F00800A061A069694600F0080034
:101AC0000490C02000901220019003200390084849
:101AD000FFF792FDE06940F40010E061E06900F476
:101AE0000010049006B010BD0054004000100240E9
:101AF000000C0140024881680278114481607047FF
:101B000000000020074810B5016841F01001016095
:101B1000032000F075F80F2000F006F800F024F81C
:101B2000002010BD0020024070B50D4D04464FF45A
:101B30007A712878B1FBF0F00A490968B1FBF0F03E
:101B400000F052FB48B9102C07D200222146501E4B
:101B500000F036F800206C6070BD012070BD000000
:101B6000000000200C0000200C4808B5816941F0FD
:101B700001018161816901F001010091C16941F0B8
:101B80008051C161C06900F08050009004484168F4
:101B900021F0E06141F00071416008BD0010024099
:101BA00000000140002809DB00F01F0201219140E4
:101BB0004009800000F1E020C0F8001170470000EB
:101BC000F0B40E4B1B680C46C3F30223C3F10705A8
:101BD000042D00D90425191D072901D2002300E096
:101BE000DB1E012606FA05F1491E214099409E4060
:101BF000761E16403143F0BC01F05BB90CED00E0FD
:101C0000064900F0070208684FF6FF03184040EA53
:101C10000220034A10430860704700000CED00E00A
:101C20000000FA052DE9F84305460078354CC00759
:101C300054D0E0690026C00008D4E06940F080502C
:101C4000E061E069012600F0805000902E480168B4
:101C5000C90512D40168804641F480710160FFF724
:101C6000BBFD074605E000BFFFF7B6FDC01B6428BB
:101C700023D8D8F80000C005F6D5206A10F44070CB
:101C800021D0A98801F4407181421CD0206A1F49EB
:101C9000012220F440700A6000220A602062C0071E
:101CA00011D0FFF799FD074641F2883808E000BFE0
:101CB000FFF792FDC11B414502D90320BDE8F8831F
:101CC000206A8007F4D5206A696820F440700843D0
:101CD00020621EB1E06920F08050E0612878800722
:101CE00005D56068A96820F4404008436060287802
:101CF000C00605D56068E96820F48000084360608C
:101D00000020DBE700100240007000404004424227
:101D10002DE9F0470F46050061D0434E306800F0D2
:101D20000700B84209D2306820F00700384330601D
:101D3000306800F00700B84251D128683B4C810759
:101D400012D5400703D5606840F4E06060602878F1
:101D5000000703D5606840F4605060606068A9685F
:101D600020F0F000084360602878C00728D0686839
:101D7000012810D02168022810D0890700292EDA06
:101D8000616821F0030101436160FFF725FD804692
:101D900041F288390DE021688903EFE78901EDE719
:101DA000FFF71AFDA0EB0801494502D90320BDE861
:101DB000F0876068696800F00C00B0EB810FEFD12C
:101DC000306800F00700B8420BD9306820F00700F7
:101DD00038433060306800F00700B84201D001207D
:101DE000E5E72878400705D56068E96820F4E060F9
:101DF000084360602878000706D56068296920F4E8
:101E0000605040EAC100606000F038F86168084A3C
:101E1000C1F30311515CC8400649086006480068D8
:101E2000FFF782FE0020C2E70020024000100240BF
:101E3000C22F00080C0000200400002004480549BF
:101E400000684968044AC1F30221515CC8407047E8
:101E50000C00002000100240D22F00080448054961
:101E600000684968044AC1F3C221515CC840704708
:101E70000C00002000100240D22F00080E4A5168CA
:101E80000E4801F00C03042B11D0082B0FD10C4885
:101E9000C1F38343C903C05C0AD55168084AC1F342
:101EA0004041921E515C054A5043B0FBF1F070472F
:101EB00004494843704700000010024000127A00B5
:101EC000B22F000800093D002DE9F84F040070D042
:101ED0002078C04DC00749D06868C0F38100012850
:101EE00007D06868C0F38100022809D16868C00380
:101EF00006D52868800339D560680028E7D035E02A
:101F00006068B0F5803F0BD010B1B0F5A02F11D0B4
:101F1000286820F480302860286820F4802002E0BF
:101F2000286840F480302860606890B1FFF754FC66
:101F300006460AE0286840F480202860F0E700BFE9
:101F4000FFF74AFC801B642873D828688003F7D504
:101F50000CE0FFF741FC064605E000BFFFF73CFC44
:101F6000801B6428F0D828688003F7D420789A4E24
:101F700080074FF001094FF0000839D5686810F06C
:101F80000C0F07D06868C0F38100022809D1686887
:101F9000C00306D42868800714D52069012808D119
:101FA00010E02069B0B1C6F80090FFF715FC0746B5
:101FB00005E00AE1FFF710FCC01B0228C4D828681E
:101FC0008007F7D52868616920F0F80040EAC10071
:101FD00028600DE0C6F80080FFF7FEFB074604E02E
:101FE000FFF7FAFBC01B022823D828688007F7D424
:101FF000207800072CD57948A169D9B1C0F80090A4
:10200000FFF7EAFB074604E0FFF7E6FBC01B0228E8
:102010000FD8686A8007F7D571484FF4FA51006805
:10202000B0FBF1F0009000BF0098411E0091FAD281
:102030000EE080E0C0F80080FFF7CEFB074604E02A
:10204000FFF7CAFBC01B022875D8686A8007F7D45F
:102050002078400760D5E8690027C00008D4E86907
:1020600040F08050E861E869012700F0805000905E
:102070005C480168C90513D40168834641F4807146
:102080000160FFF7A9FB824606E000BFFFF7A4FB53
:10209000A0EB0A0064284ED8DBF80000C005F5D597
:1020A000E06801280AD008B1052813D0286A20F07A
:1020B00001002862286A20F0040002E0286A40F04B
:1020C00001002862E06841F2883B98B1FFF784FB89
:1020D00082460BE0286A40F004002862EEE700BF69
:1020E000FFF77AFBA0EB0A0159455AD8286A800706
:1020F000F6D50CE0FFF770FB824605E0FFF76CFBBE
:10210000A0EB0A0159454CD8286A8007F6D41FB1C4
:10211000E86920F08050E861E06988B36968C1F33C
:102120008101022944D00228C6F8608004D0FFF75C
:1021300053FB044638E034E0FFF74EFB074604E06B
:10214000FFF74AFBC01B02282BD828688001F7D470
:10215000206AB0F5803F05D16868A16820F400309E
:1021600008436860D4E908010843696821F47411E0
:1021700008436860C6F86090FFF72EFB044606E04F
:1021800025E000BFFFF728FB001B022809D82868BC
:102190008001F7D51BE000BFFFF71EFB001B0228E4
:1021A00002D90320BDE8F88F28688001F4D40EE03E
:1021B0000128F7D06868226A00F48031914204D186
:1021C000616A00F47010884201D00120EAE7002023
:1021D000E8E7000000100240000042428004424252
:1021E0000C0000200070004010B5401EB0F1807F50
:1021F00001D3012010BD4FF0E02460610F21601772
:1022000000F057FE0020A06107202061002010BDD3
:1022100070477047F8B5016804460868CA684B699A
:1022200010F00F0F4FF000055AD003F0010602F432
:102230009077374365D0C10705D0D10503D5616CD0
:1022400041F001016164410705D5D90703D0616CF4
:1022500041F002016164810705D5D90703D0616CA3
:1022600041F004016164010707D502F02001314308
:1022700003D0616C41F008016164616C00293BD0BE
:10228000800604D5900602D5204600F013FD206894
:102290004069616CC0F3801001F0080101432046E1
:1022A0002BD000F0E0FC20684069400621D5206872
:1022B000143050E8001F21F0400140E80012002ACD
:1022C000F5D1E06BA8B16D494163E06BFFF726F8EB
:1022D000002811D0E06B416B01B0BDE8F040084729
:1022E00083060ED593060CD52046BDE8F84000F0D5
:1022F000E1BC2046FFF78DFFF8BDFFF78AFF65645C
:10230000F8BD266B2023012E7CD1C6067AD5D606D1
:1023100078D508684868009048694FF00206400682
:1023200040D5E16B086840680004000CE8D0A28D3D
:102330008242E5D9E085886920282DD020680C30BC
:1023400050E8001F21F4807140E80012002AF5D106
:102350002168143151E8000F20F0010041E800022B
:10236000002AF5D12068143050E8001F21F0400108
:1023700040E80012002AF5D184F842302563206835
:102380000C3050E8001F21F0100140E80012002A34
:10239000F5D1E06BFEF79EFF6663A08DE18D401ADC
:1023A00081B22AE0A08DE18D401A81B2E08D002833
:1023B000A6D00029A4D022680C3252E8000F20F4E5
:1023C000907042E80007002FF5D12068143050E8E3
:1023D000002F22F0010240E80027002FF5D184F8F9
:1023E0004230256320680C3050E8002F22F01002A4
:1023F00040E80023002BF5D166632046FFF708FF75
:10240000F8BDFFE705062BD5150629D594F8410040
:102410002128F5D1A068B0F5805F01D12069B0B165
:10242000206A411C2162216800784860E08C401ECF
:102430000004000CE084E3D12068C16821F0800131
:10244000C1602068C16841F04001C160D8E7206ADE
:102450000088C0F308004860206A801C2062E5E71D
:102460004006CDD55006CBD5CA68204622F04002A2
:10247000CA6084F8413000F0C6F8C1E7572C000864
:1024800070B5040004D094F84100002510B106E0B6
:10249000012070BD84F84050204600F023F824202D
:1024A00084F841002068C16821F40051C1602046D1
:1024B00000F062FC2068016921F49041016120680C
:1024C000416921F02A0141612068C16841F400514D
:1024D000C1606564202084F8410084F8420065638F
:1024E000002070BD30B585B00024009401940294A2
:1024F00003940068184988422CD11848816941F436
:1025000080418161816901F480410491816941F0D8
:10251000040181618069124D00F0040004904FF4C1
:102520000070009002200190032003906946284625
:10253000FFF762F82815CDE90004694628460294A1
:10254000FFF75AF8002211462520FFF739FB252016
:10255000FFF728FB05B030BD0038014000100240F5
:102560000008014070472DE9F843044690F8410007
:10257000984616460D46202802D00220BDE8F88372
:1025800085B17EB100206064212084F84100FFF70E
:1025900023F9A6848146E684A0682027B0F5805FF1
:1025A00002D003E00120E9E7206910B12E460025A2
:1025B0000EE000260CE08021204600F039FCA8B98E
:1025C000C6B116F8010B21684860E08C401EE0841B
:1025D000E08C4B464FF00002CDF800800028EAD195
:1025E0004FF04001204600F023FC40B184F84170D8
:1025F0000320C3E735F8020BC0F30800E3E784F8D3
:1026000041700020BAE77047FEE701684A69D2438B
:1026100052050FD46FF480624A61002140F8301FE8
:10262000202242738173026942F004020261017345
:102630000120704700207047F8B50446C06A1E4666
:102640000D461746082807D0012805D010F5803F11
:1026500002D0206B122804D12068016841F48071F7
:102660000160134600224FF001112046009600F051
:102670005DF840B120680068C00502D54FF40070D5
:1026800020640320F8BD2069B0F5804F0ED00620ED
:10269000216800EAD51040F0F000086133463A4660
:1026A0000B49204600F08AF878B902E005F0FE00F8
:1026B00000E0E8B221680861054933463A46891FBF
:1026C000204600F07BF80028DCD00120F8BD000097
:1026D0000800010070B516460D4604461EE020466F
:1026E000FFF793FF08B1012070BD681C16D0FFF7FB
:1026F00073F8801BA84200D885B920684069C043A0
:1027000040070BD5002044F8300F20216173A073DF
:10271000216941F0200121612073E4E720684069CC
:10272000C0434007DBD4002070BD00002DE9F04716
:10273000984617460D460446C1F30746DDF820903B
:102740002AE000BFB8F1FF3F26D0FFF745F8A0EB25
:102750000901414502D8B8F1000F1DD12068012EB2
:1027600016D0806925EA00000004000C12D0002079
:10277000B84211D1002044F8300F20216173A073BA
:10278000216941F02001216120730120BDE8F0871B
:102790004069E7E70120EBE72068012E0AD0806955
:1027A00025EA00000004000C06D00020B842C9D081
:1027B0000020EBE74069F3E70120F7E72DE9F04758
:1027C000984616460D4604464FF000094FF0200A81
:1027D000C1F3074723E020684069C043400515D492
:1027E0002068016841F40071016021686FF4806025
:1027F0004861C4F8309084F83DA084F83E90216C84
:1028000041F00401216484F83C9021E0701C06D062
:10281000FEF7E2FFA0EB0800B04203D816B1012F8B
:102820001FD021E02068012F15D0806925EA000023
:102830000004000C18D000BF44F8309F84F80DA0AD
:1028400084F80E90216941F02001216184F80C90F8
:102850000120BDE8F087406925EA00000004000C73
:10286000EAD12068406901E02068806925EA00001B
:102870000004000CAFD1ECE770B516460D460446D7
:102880001EE02046FFF7C1FE08B1012070BD681CA4
:1028900016D0FEF7A1FF801BA84200D885B920689A
:1028A0004069C04300060BD5002044F8300F2021BA
:1028B0006173A073216941F0200121612073E4E775
:1028C00020684069C0430006DBD4002070BD0000D2
:1028D0003EB5002410480094019402940D49846090
:1028E000016004730475012505614FF460214460A3
:1028F000C161FEF793FB08B1FEF702FBCDE900458D
:10290000694605480294FEF7FDFA002801D0FEF75B
:10291000F7FA3EBD0024014020000020094808B518
:10292000416941F0010141614069002200F001006C
:10293000009011460B20FFF743F9BDE808400B203B
:10294000FFF730B9001002400D4808B5816941F029
:1029500020018161816901F020010091816941F0CC
:1029600004018161816901F004010091816941F0F4
:1029700008018161806900F00800009008BD000036
:10298000001002400D4810B50B4901600C49416030
:1029900000214FF480428160C0E9031241618161EE
:1029A000C1610162FEF71EFF002803D0BDE81040A0
:1029B000FEF7A6BA10BD00000054004094000020AD
:1029C000A08601000C4810B50A4901604FF4E131BE
:1029D0004160002181600C22C160C0E90412816164
:1029E000C161FFF74DFD002803D0BDE81040FEF7A0
:1029F00087BA10BD00380140E8000020FEE7FEE77E
:102A000070B5002404F1B000C0B200F0BDF80020A1
:102A100000F0BAF8102000F0B7F80025002000F010
:102A2000C7F86D1CEDB2802DF8D3641CE4B2082CFD
:102A3000E8D370BD10B5C820FEF7CCFDAE2000F085
:102A4000A3F8D52000F0A0F8802000F09DF8A82081
:102A500000F09AF83F2000F097F8D32000F094F8A7
:102A6000002000F091F8402000F08EF88D2000F05A
:102A70008BF8142000F088F80A20FEF7ABFD202028
:102A800000F082F8002000F07FF8A12000F07CF830
:102A9000C82000F079F8DA2000F076F8122000F073
:102AA00073F8812000F070F8CF2000F06DF8D92085
:102AB00000F06AF8F12000F067F8DB2000F064F81D
:102AC000302000F061F8A42000F05EF8A62000F0AD
:102AD0005BF82E2000F058F8AF2000F055F8BDE864
:102AE0001040FFF78DBF00002DE9F041203AD6B22B
:102AF0000F4604465E2E2DD807F1B000C0B200F09C
:102B000043F8102040EA1410054600F03DF804F0A8
:102B10000F00804600F038F80F48002400EB06163E
:102B2000305D00F045F8641CE4B2082CF8D3B137EE
:102B3000F8B200F029F8284600F026F8404600F0E8
:102B400023F800243019007A00F032F8641CE4B253
:102B5000082CF7D3BDE8F081DA2F000870B51546D0
:102B60000E4604460BE031462046FFF7BDFF083411
:102B7000E4B2782C02D90024B61CF6B26D1C2A7877
:102B8000002AF0D170BD00001CB500218DF80410A2
:102B90008DF8050064200090022301AA78210348E3
:102BA000FEF7E4FE002800D0FEE71CBD94000020E4
:102BB0001CB540218DF804108DF8050064200090AC
:102BC000022301AA78210248FEF7D0FE1CBD0000B6
:102BD0009400002070477047FEF78CBF30B593B06B
:102BE00028216846FDF778FB14210AA8FDF774FB3D
:102BF000002501200F9510951195010412958DE87F
:102C0000230004904FF4E010CDE90810022407944B
:102C10006846FFF759F908B172B6FEE70AA90F2016
:102C200081E831004FF48060CDE90D0502210AA84A
:102C3000FFF76EF808B172B6FEE74FF4004011904E
:102C40000F940FA8FEF7EEFF002801D072B6FEE742
:102C500013B030BD704710B5406A0021C185C184F2
:102C6000FFF7D7FA10BD01680C3151E8002F22F4AC
:102C7000907241E80023002BF5D10168143151E82E
:102C8000002F22F0010241E80023002BF5D1016B57
:102C9000012909D101680C3151E8002F22F01002FE
:102CA00041E80023002BF5D1202180F842100021BB
:102CB0000163704708B590F84210222901D0022024
:102CC00008BD82684FF480539A4201D1016921B155
:102CD000816A9A421BD04AB10AE00268816A52684E
:102CE000C2F308020A80816A891C08E0026972B195
:102CF0000268526802F07F020A70816A491C816290
:102D0000C18D491E0904090CC18503D01BE002686E
:102D10005268F1E70168CA6822F02002CA600168BF
:102D2000CA6822F48072CA6001684A6922F001020E
:102D30004A61202180F8421000214163026B012A80
:102D400003D0FFF70FFC002008BD016301680C31C0
:102D500051E8002F22F0100241E80023002BF5D1AA
:102D600001680A68D20602D50A6849680091818D17
:102D7000FFF74EFAE7E7000070B504460068016906
:102D8000E26821F44051114301612169A0680843C0
:102D9000616908432168CA6841F20C639A4302439F
:102DA000CA6020684169A26921F440711143416100
:102DB0001E492068884202D1FFF750F801E0FFF772
:102DC0003DF800EBC00101EB001260686421800057
:102DD000B2FBF0F3B3FBF1F36FF018067343B2FBF1
:102DE000F0F5B2FBF0F605EB8305322303EB051596
:102DF000B5FBF1F5B6FBF1F605F0F00505EB0615B0
:102E0000B2FBF0F6B2FBF0F0B0FBF1F06FF018029D
:102E1000504306EB800003EB0010B0FBF1F021689B
:102E200000F00F002844886070BD000000380140A9
:102E30002DE9F843984617460D460446089E24E0BF
:102E4000701C22D0FEF7C8FCA0EB0800B0421AD8D4
:102E5000CEB12068C168490717D5802D15D0402D07
:102E600013D00168C94309070FD4016800254068E1
:102E700000902046FFF7F7FE0820606484F8405079
:102E80000120BDE8F8830320FBE72068006835EAED
:102E9000000004D00020B842D2D00020F1E7012089
:102EA000F9E700000148FFF7B5B90000E80000208D
:102EB000FEE70907090E002804DB00F1E02080F896
:102EC0000014704700F00F0000F1E02080F8141D9E
:102ED0007047000013B54FF47A7301226946024827
:102EE000FFF741FB00981CBDE80000201CB5FEF771
:102EF00009FEFFF773FEFFF727FDFFF70FFDFFF752
:102F000041FDFFF7E5FCFFF75DFD6420FEF762FB86
:102F100000246426CDE90064022301AA7821174821
:102F2000FEF724FDFFF786FDFFF76AFD002114A2DE
:102F30000846FFF713FEFDF75DFFFDF7B1FF124FE7
:102F4000A046387801280FD187F8008000252C464C
:102F5000E0B2FDF7ADFF641C0544642CF8DBB5FB63
:102F6000F6F10AA0FDF73CF96420FEF733FB0021DF
:102F70000BA20846FFF7F2FDE3E7000094000020F3
:102F800054657374204F4B0010000020414443E50A
:102F9000B9B3E59D87E580BCEFBC9A25750D0A00A5
:102FA00050726573737572653A20313230000000DB
:102FB000010202030405060708090A0B0C0D0E0F97
:102FC00010100000000000000000010203040607CA
:102FD00008090000000001020304000000000000D6
:102FE00000000000000000000000000000F80000E9
:102FF0000000000000333000000000100C06100C30
:103000000600000000000000000040C07840C078CA
:103010004000043F04043F040400007088FC0830B2
:103020000000001820FF211E0000F008F000E0184A
:10303000000000211C031E211E0000F00888700003
:1030400000001E2123241927211010160E00000055
:1030500000000000000000000000000000E0180474
:103060000200000000071820400000020418E000E1
:1030700000000040201807000000404080F0804021
:1030800040000202010F01020200000000F00000F7
:1030900000000101011F010101000000000000000B
:1030A000000080B070000000000000000000000080
:1030B0000000000101010101010100000000000009
:1030C00000000030300000000000000000008060C0
:1030D0001804006018060100000000E01008081045
:1030E000E000000F102020100F00001010F800006A
:1030F00000000020203F2020000000700808088801
:1031000070000030282422213000003008888848D0
:1031100030000018202020110E000000C02010F800
:10312000000000070424243F240000F808888808D1
:1031300008000019212020110E0000E010888818D6
:103140000000000F112020110E0000380808C838B8
:1031500008000000003F0000000000708808088898
:103160007000001C222121221C0000E01008081021
:10317000E0000000312222110F00000000C0C0005A
:10318000000000000030300000000000008000005F
:10319000000000008060000000000000804020105F
:1031A0000800000102040810200040404040404058
:1031B00040000404040404040400000810204080BB
:1031C00000000020100804020100007048080808F0
:1031D000F0000000003036010000C030C828E810C0
:1031E000E0000718272423140B000000C038E0007B
:1031F0000000203C23020227382008F888888870C5
:103200000000203F202020110E00C03008080808D0
:103210003800071820202010080008F808080810B7
:10322000E000203F202020100F0008F88888E808E0
:103230001000203F20202320180008F88888E80884
:103240001000203F200003000000C03008080838AC
:10325000000007182020221E020008F808000008BD
:10326000F808203F210101213F20000808F8080844
:1032700000000020203F2020000000000808F8087F
:103280000800C08080807F00000008F888C02818EF
:103290000800203F20012638200008F80800000020
:1032A0000000203F20202020300008F8F800F8F827
:1032B0000800203F003F003F200008F830C0000811
:1032C000F808203F200007183F00E0100808081009
:1032D000E0000F10202020100F0008F80808080850
:1032E000F000203F210101010000E0100808081053
:1032F000E0000F18242438504F0008F88888888888
:103300007000203F2000030C30200070880808085F
:1033100038000038202121221C00180808F808086D
:1033200018000000203F2000000008F808000008F6
:10333000F808001F202020201F000878880000C8FF
:103340003808000007380E010000F80800F80008EF
:10335000F800033C0700073C0300081868808068F9
:10336000180820302C03032C30200838C800C83837
:1033700008000000203F2000000010080808C8389E
:1033800008002038262120201800000000FE02023C
:1033900002000000007F40404000000C30C00000F0
:1033A0000000000000010638C00000020202FE001A
:1033B0000000004040407F000000000004020202C4
:1033C00004000000000000000000000000000000F9
:1033D00000008080808080808080000202040000E5
:1033E00000000000000000000000000080808080DD
:1033F00000000019242222223F2008F800808000CB
:103400000000003F112020110E000000008080808D
:103410000000000E11202020110000000080808894
:10342000F800000E112020103F20000080808080D6
:103430000000001F222222221300008080F08888D2
:1034400088180020203F202000000000808080801D
:103450008000006B94949493600008F80080808052
:103460000000203F210000203F20008098980000AD
:1034700000000020203F20200000000000809898DD
:10348000000000C08080807F000008F8000080807D
:103490008000203F24022D302000000808F80000A2
:1034A00000000020203F202000008080808080805D
:1034B0008000203F20003F20003F808000808080EF
:1034C0000000203F210000203F20000080808080FD
:1034D0000000001F202020201F008080008080002E
:1034E000000080FFA12020110E00000000808080DD
:1034F0008000000E112020A0FF808080800080804E
:10350000800020203F21200001000000808080807A
:1035100080000033242424241900008080E080806F
:1035200000000000001F20200000808000000080BC
:103530008000001F202020103F208080800000801D
:10354000808000010E30080601008080008000802D
:1035500080800F300C030C300F00008080008080D2
:1035600080000020312E0E312000808080000080FD
:10357000808080818E7018060100008080808080AD
:1035800080000021302C2221300000000000807CCF
:10359000020200000000003F404000000000FF0069
:1035A000000000000000FF0000000002027C80001C
:1035B00000000040403F0000000000060101020240
:1035C000040400000000000000003A7474003A7423
:1035D00074003A7474000000F83500080000002000
:1035E00020000000280100081836000820000020F4
:1035F000700A0000440100080100000010000000F3
:103600000000000000127A0000000000000000002E
:083610000000000000000000B2
:04000005080000ED02
:00000001FF
